:020000040800F2
:1000000000500020F13D0008050D0008070D000814
:10001000090D00080B0D00080D0D00080000000080
:100020000000000000000000000000000F0D0008AC
:10003000110D000800000000130D0008150D000848
:10004000393E0008393E0008393E0008393E0008B4
:10005000393E0008393E0008393E0008393E0008A4
:10006000393E0008393E0008393E00081D0D0008E1
:10007000393E0008393E00082D0D0008393E0008C1
:10008000393E0008393E00083D0D00084D0D0008BE
:100090005D0D00086D0D0008393E0008393E00086E
:1000A000393E00087D0D0008393E0008393E000841
:1000B000393E0008393E0008393E0008393E000844
:1000C000393E0008393E0008393E0008393E000834
:1000D000393E0008950D0008393E0008393E0008F9
:1000E000393E0008393E0008393E00080000000093
:1000F0000000000000000000000000000000000000
:0C01000000000000000000005FF808F1A3
:10010C0080F0004002E000BF81F0004142001FBFC0
:10011C005FEA410392EA030F7FEA226C7FEA236CC9
:10012C006AD04FEA1262D2EB1363C1BFD2184140BE
:10013C0048404140B8BF5B42192B88BF704710F054
:10014C00004F40F4000020F07F4018BF404211F0F7
:10015C00004F41F4000121F07F4118BF494292EA5F
:10016C00030F3FD0A2F1010241FA03FC10EB0C008B
:10017C00C3F1200301FA03F100F0004302D5494218
:10018C0060EB4000B0F5000F13D3B0F1807F06D3C5
:10019C0040084FEA310102F10102FE2A51D2B1F1BD
:1001AC00004F40EBC25008BF20F0010040EA0300B2
:1001BC007047490040EB0000013A28BFB0F5000F32
:1001CC00EDD2B0FA80FCACF1080CB2EB0C0200FAE8
:1001DC000CF0AABF00EBC25052421843BCBFD04037
:1001EC001843704792F0000F81F4000106BF80F4B1
:1001FC0000000132013BB5E74FEA41037FEA226C74
:10020C0018BF7FEA236C21D092EA030F04D092F03E
:10021C00000F08BF0846704790EA010F1CBF002072
:10022C00704712F07F4F04D1400028BF40F00040CF
:10023C00704712F100723CBF00F50000704700F0EF
:10024C00004343F0FE4040F4000070477FEA226216
:10025C0016BF08467FEA23630146420206BF5FEAE7
:10026C00412390EA010F40F4800070474FF00003E7
:10027C0004E000BF10F0004348BF40425FEA000CAE
:10028C0008BF704743F0964301464FF000001CE056
:10029C0050EA010208BF70474FF000030AE000BFAC
:1002AC0050EA010208BF704711F0004302D54042EA
:1002BC0061EB41015FEA010C02BF8446014600205C
:1002CC0043F0B64308BFA3F18053A3F50003BCFA77
:1002DC008CF2083AA3EBC25310DB01FA02FC634424
:1002EC0000FA02FCC2F12002BCF1004F20FA02F22B
:1002FC0043EB020008BF20F00100704702F120021E
:10030C0001FA02FCC2F1200250EA4C0021FA02F27E
:10031C0043EB020008BF20EADC7070474FF0FF0C83
:10032C001CEAD0521EBF1CEAD15392EA0C0F93EA7E
:10033C000C0F6FD01A4480EA010C400218BF5FEA20
:10034C0041211ED04FF0006343EA501043EA511193
:10035C00A0FB01310CF00040B1F5000F3EBF49008D
:10036C0041EAD3715B0040EA010062F17F02FD2A91
:10037C001DD8B3F1004F40EBC25008BF20F0010074
:10038C00704790F0000F0CF0004C08BF49024CEA8B
:10039C00502040EA51207F3AC2BFD2F1FF0340EA1D
:1003AC00C250704740F400004FF00003013A5DDC8E
:1003BC0012F1190FDCBF00F000407047C2F10002CF
:1003CC00410021FA02F1C2F1200200FA02FC5FEABC
:1003DC00310040F1000053EA4C0308BF20EADC7006
:1003EC00704792F0000F00F0004C02BF400010F478
:1003FC00000F013AF9D040EA0C0093F0000F01F025
:10040C00004C02BF490011F4000F013BF9D041EA46
:10041C000C018FE70CEAD15392EA0C0F18BF93EA48
:10042C000C0F0AD030F0004C18BF31F0004CD8D172
:10043C0080EA010000F00040704790F0000F17BFF9
:10044C0090F0004F084691F0000F91F0004F14D03F
:10045C0092EA0C0F01D142020FD193EA0C0F03D197
:10046C004B0218BF084608D180EA010000F000409A
:10047C0040F0FE4040F40000704740F0FE4040F475
:10048C00400070474FF0FF0C1CEAD0521EBF1CEA14
:10049C00D15392EA0C0F93EA0C0F69D0A2EB030232
:1004AC0080EA010C49024FEA402037D04FF08053CC
:1004BC0043EA111143EA10130CF000408B4238BF91
:1004CC005B0042F17D024FF4000C8B4224BF5B1A9F
:1004DC0040EA0C00B3EB510F24BFA3EB510340EAED
:1004EC005C00B3EB910F24BFA3EB910340EA9C009B
:1004FC00B3EBD10F24BFA3EBD10340EADC001B010B
:10050C0018BF5FEA1C1CE0D1FD2A3FF650AF8B42AE
:10051C0040EBC25008BF20F0010070470CF0004CBB
:10052C004CEA50207F32C2BFD2F1FF0340EAC250E6
:10053C00704740F400004FF00003013A37E792F0A7
:10054C00000F00F0004C02BF400010F4000F013A05
:10055C00F9D040EA0C0093F0000F01F0004C02BF00
:10056C00490011F4000F013BF9D041EA0C0195E769
:10057C000CEAD15392EA0C0F08D142027FF47DAF02
:10058C0093EA0C0F7FF470AF084676E793EA0C0FF2
:10059C0004D14B023FF44CAF08466EE730F0004CF0
:1005AC0018BF31F0004CCAD130F000427FF45CAF80
:1005BC0031F000437FF43CAF5FE700BF0348044BCE
:1005CC00834202D0034B03B1184770470C00002044
:1005DC000C000020000000000548064B1B1AD90F28
:1005EC0001EBA301491002D0034B03B1184770472C
:1005FC000C0000200C0000200000000010B5064C80
:10060C00237843B9FFF7DAFF044B13B10448AFF377
:10061C0000800123237010BD0C000020000000009E
:10062C00943E000808B5054B1BB105490548AFF3CE
:10063C000080BDE80840FFF7CFBF00BF00000000FE
:10064C0010000020943E000808B502F075FB014B29
:10065C00186008BD2800002038B5054602F0AAF83D
:10066C0040B948F60371284602F02AFA044630B91C
:10067C00204638BD04462846FFF7E6FFF8E7284633
:10068C00FFF7E2FFF4E7F0B58BB007460C461646D1
:10069C001D4628220021684603F0C9FB14F0010016
:1006AC0003D114F0020F02D001200BB0F0BDE3080F
:1006BC00059301210791720192B200926B019BB2DA
:1006CC000293C4F38004049408910E2309936946A1
:1006DC00384601F0E7FFE8E730B58BB005460C462D
:1006EC0000210491059106910791089109910291BD
:1006FC00039182B11046082B0DD800229A4217D2D2
:10070C0010F802E002F128010DEB010C0CF820ECC2
:10071C00013292B2F2E7104A1368013313600F4BA7
:10072C004FF400121A6001231C4620460BB030BD5A
:10073C000494089301AB02AA04A9284602F068F8B5
:10074C0004460028F1D0044A13680133136028468C
:10075C00FFF77AFFE9E700BF2C00002028000020FB
:10076C0010B58AB0044601AB00210191596003AA6F
:10077C0002F0D1F830B9039A40F291339A4205D085
:10078C000AB010BD2046FFF75FFFF9E7079B002B6F
:10079C00F6D09DF80430012B08D0022BF0D10122A9
:1007AC004FF40051054801F0A3FCE9E702464FF471
:1007BC000051024801F09CFCE2E700BF0010014030
:1007CC0008B5064A136801331360FFF73DFF4FF479
:1007DC000051034801F092FC08BD00BF300000201E
:1007EC000010014008B5064A136801331360FFF787
:1007FC002BFF4FF40051034801F080FC08BD00BFF3
:10080C00300000200010014008B5064A136801337F
:10081C001360FFF719FF4FF40051034801F06EFC11
:10082C0008BD00BF300000200010014008B5064A8A
:10083C00136801331360FFF707FF00224FF40051D8
:10084C00024801F055FC08BD2C00002000100140AE
:10085C0072B6FEE710B594B00AAC282200212046EF
:10086C0003F0E5FA00230593069307930893099385
:10087C00019302930393049301220A924FF4803361
:10088C000B930E920222119212934FF4E0131393D6
:10089C00204600F02FFFB8B90F23059302210691D3
:1008AC0007904FF480620892099005A801F056F960
:1008BC0060B9022301934FF40043039301A801F0A4
:1008CC0029FA28B914B010BDFFF7C2FFFFF7C0FF1B
:1008DC00FFF7BEFF00B583B000F0BEFEFFF7BAFF16
:1008EC0000F048F802F07AFD00F082F800F01AF9F6
:1008FC0000F08AF902F092FD00231A4619461948B5
:10090C00FFF7C1FE08B1FFF7A3FF1648FFF7A4FEDF
:10091C0008B1FFF79DFF8DF8070000F05FFA124851
:10092C0002F0CEFE114800F0EDFD032210490F48F5
:10093C0000F08EFC06E0322000F0B2FE4FF47A702C
:10094C0000F0AEFE9DF8073001338DF8073001231F
:10095C000DF1070240F291310248FFF7BDFE00286D
:10096C00E9D1EBE7A80000209801002078000020D6
:10097C005C01002070B588B004AD0024049405948B
:10098C0006940794184B9A6942F010029A619A697E
:10099C0002F010020192019A9A6942F020029A61C7
:1009AC009A6902F020020292029A9A6942F00402B9
:1009BC009A619B6903F004030393039B0B4E22463D
:1009CC004FF40051304601F093FB4FF40053049365
:1009DC00012305930694022307932946304601F020
:1009EC0095FA08B070BD00BF001002400010014025
:1009FC0000B585B000230193029303931C481D4A54
:100A0C0002604FF480728260012202730375C3612D
:100A1C0043600323036100F0E1FCE0B9012301937F
:100A2C0002930723039301A9114800F013FBA8B903
:100A3C0002230193029301A90D4800F00BFB80B92E
:100A4C00012301930323029301A9094800F002FB3F
:100A5C0050B905B000BDFFF7FBFEDFE7FFF7F8FE6E
:100A6C00E6E7FFF7F5FEEBE7FFF7F2FEF1E700BF75
:100A7C00780000200024014010B586B000230293BA
:100A8C000393049305930268224B9A4201D006B05B
:100A9C0010BD044603F56C439A6942F400729A61E6
:100AAC009A6902F400720092009A9A6942F0040268
:100ABC009A619B6903F004030193019B0623029343
:100ACC000323039302A9144801F020FA1348144B92
:100ADC0003600023436083608022C2604FF4807205
:100AEC0002614FF48062426120228261C36101F095
:100AFC002BFB58B9094B23625C6200221146122071
:100B0C0001F0F8FC122001F005FDC0E7FFF7A0FE94
:100B1C00F0E700BF00240140000801403400002031
:100B2C000800024008B50E480E4B036003234360D7
:100B3C0000238360C3604FF4E02202614FF4001283
:100B4C0042610376012242768376C276037743773D
:100B5C0001F002FD00B908BDFFF77AFEFBE700BF0C
:100B6C00A80000200064004000B587B00023029369
:100B7C000393049305930268214B9A4201D007B06A
:100B8C0000BD03F5D633DA6942F00072DA61DA6936
:100B9C0002F000720092009A9A6942F004029A6183
:100BAC009B6903F004030193019B4FF400630293D0
:100BBC0002A9144801F0AAF94FF4805302930223BE
:100BCC0003930323059302A90E4801F09FF9002219
:100BDC001146132001F08EFC132001F09BFC002227
:100BEC001146142001F086FC142001F093FC002225
:100BFC001146152001F07EFC152001F08BFCBEE7A0
:100C0C00006400400008014008B50A480A4B036024
:100C1C004FF46123436000238360C36003610C22A3
:100C2C0042618361C36102F041F900B908BDFFF76D
:100C3C000FFEFBE7140100200038014030B587B0EF
:100C4C00002302930393049305930268264B9A4264
:100C5C0001D007B030BD044603F558439A6942F4FD
:100C6C0080429A619A6902F480420092009A9A69D1
:100C7C0042F004029A619B6903F004030193019B07
:100C8C004FF400730293022303930323059302A9E9
:100C9C00164801F03BF94FF480630293002503954D
:100CAC00049502A9114801F031F91148114B036068
:100CBC001023436085608023C360056145618561B5
:100CCC00C56101F041FA58B9094BA3635C6200227B
:100CDC001146252001F00EFC252001F01BFCB8E785
:100CEC00FFF7B6FDF0E700BF0038014000080140F7
:100CFC00D000002044000240FEE7FEE7FEE7FEE7DE
:100D0C00FEE770477047704708B500F0B7FC08BDA8
:100D1C0008B5024801F0F8FA08BD00BF3400002005
:100D2C0008B5024801F0F0FA08BD00BFD000002061
:100D3C0008B5024800F0FFF808BD00BF780000209D
:100D4C0008B5024801F0D6FE08BD00BFA80000207F
:100D5C0008B5024801F0CEFE08BD00BFA800002077
:100D6C0008B5024801F0C6FE08BD00BFA80000206F
:100D7C0008B5034800F04CF8024802F0D9FC08BD55
:100D8C006F12833A9801002008B5024802F0E4F98A
:100D9C0008BD00BF1401002082B00E4B9A6942F0CE
:100DAC0001029A619A6902F001020092009ADA69D2
:100DBC0042F08052DA61DB6903F080530193019BAE
:100DCC00054A536823F0E06343F00073536002B0AC
:100DDC00704700BF001002400000014010B50A4CE3
:100DEC002C220021204603F022F8802384F82A309C
:100DFC007F2384F82B30054C0021204602F026FF7F
:100E0C002368C8225A6310BD680100209801002095
:100E1C0070B5274E3088FFF729FA2649FFF732FBC9
:100E2C002549FFF77BFA2549FFF76EF92449FFF7AF
:100E3C0029FB4FF07C51FFF771FA04464FF07C51BF
:100E4C00204B1868FFF76AFA01462046FFF75EF957
:100E5C0005461D4C20607088FFF708FA1549FFF70E
:100E6C0011FB1549FFF75AFA1849FFF757FA0146D3
:100E7C0060602846FFF752FAA060B088FFF7F6F9D9
:100E8C000C49FFF7FFFA0C49FFF748FAE060104BEA
:100E9C0093F84130202B04D00B4B1A68094B1A6085
:100EAC0070BD2C2221460A4802F030F8F4E700BF4E
:100EBC005C01002000F07F45B81E55400000A03FAB
:100ECC00CCCCCC3D640100206801002000003041F6
:100EDC0014010020704708B5436A9A6A12F0500F4B
:100EEC001ED19A6A42F400729A621A68926802F4ED
:100EFC006022B2F5602F03D01846FFF7EBFF08BD58
:100F0C001A7B002AF8D19A6A22F480729A629A6A41
:100F1C0012F4805FF0D19A6A42F001029A62EBE718
:100F2C001B6A1B6B9847EAE7704708B5406AFFF7E6
:100F3C00FBFF08BD704770B5044603681E685D680A
:100F4C0015F0200F17D016F0020F14D0826A12F091
:100F5C00100F03D1826A42F4007282629A6802F422
:100F6C006022B2F5602F33D02046FFF7B3FF236821
:100F7C006FF012021A6015F0800F22D016F0040FD9
:100F8C001FD0A36A13F0100F03D1A36A43F40053CC
:100F9C00A3622268936803F4E043B3F5E04F2ED0CC
:100FAC00536813F4806F05D1936803F46023B3F591
:100FBC00602F21D0204600F027FB23686FF00C0235
:100FCC001A6015F0400F02D016F0010F28D170BD39
:100FDC00227B002AC8D15A6822F020025A60A36AE8
:100FEC0023F48073A362A36A13F4805FBCD1A36A59
:100FFC0043F00103A362B7E7237B002BDAD15368DC
:10100C0023F080035360A36A23F48053A362A36A82
:10101C0013F4807FCED1A36A43F00103A362C9E726
:10102C00A36A43F48033A3622046FFF783FF23684F
:10103C006FF001021A60CAE7704708B5406A836A0C
:10104C0043F040038362C36A43F00403C362FFF7B7
:10105C00F3FF08BD00B583B00022019290F8242064
:10106C00012A00F0A8800346012280F824204A6857
:10107C00062A34D8D0F800E0DEF83400013A02EB4E
:10108C0082024FF01F0C0CFA02FC20EA0C00D1F883
:10109C0000C00CFA02F20243CEF834200A68092A86
:1010AC0049D9D3F800E0DEF80C000A3A02EB420210
:1010BC004FF0070C0CFA02FC20EA0C00D1F808C027
:1010CC000CFA02F20243CEF80C200A68103A012AFC
:1010DC0045D90020002283F8242003B000BD0C2A3F
:1010EC0014D8D0F800E0DEF83000073A02EB8202A8
:1010FC004FF01F0C0CFA02FC20EA0C00D1F800C0D7
:10110C000CFA02F20243CEF83020C7E7D0F800E028
:10111C00DEF82C000D3A02EB82024FF01F0C0CFA99
:10112C0002FC20EA0C00D1F800C00CFA02F20243D7
:10113C00CEF82C20B2E7D3F800E0DEF8100002EB7A
:10114C0042024FF0070C0CFA02FC20EA0C00D1F81A
:10115C0008C00CFA02F20243CEF81020B5E71A6868
:10116C001648824205D09A6A42F020029A62012007
:10117C00B0E7906810F4000F1BD1906840F40000A9
:10118C0090600A68102A01D00020A3E70C4A12686C
:10119C000C49A1FB0212920C02EB8202520001924A
:1011AC0002E0019A013A0192019A002AF9D1104603
:1011BC0090E700208EE702208FE700BF002401405B
:1011CC000800002083DE1B4330B583B0002301935D
:1011DC0003689A6812F0010F33D104469A6842F002
:1011EC0001029A60184B1B68184AA2FB03239B0C44
:1011FC00019302E0019B013B0193019B002BF9D170
:10120C0000F048FA054623689B6813F0010F16D1CD
:10121C0000F040FA431B022BF5D923689B6813F0AE
:10122C00010FF0D1A36A43F01003A362E36A43F009
:10123C000103E362002384F82430012002E0002043
:10124C0000E0002003B030BD0800002083DE1B430B
:10125C00F8B504460E46174601684548814259D0F8
:10126C00444B994256D094F82430012B7DD0012365
:10127C0084F824302046FFF7A7FF054600286FD1DD
:10128C00A16A21F4706121F0010141F48071A16225
:10129C002268384B9A4245D0A36A23F48013A36288
:1012AC00536813F4806F05D0A36A23F4405343F4BE
:1012BC008053A362A36A13F4805F49D0E36A23F0DE
:1012CC000603E362002384F82430236A2A4A9A62D4
:1012DC00236A2A4ADA62236A294A1A6323686FF05E
:1012EC0002021A602268936843F480739360216849
:1012FC003B4632464C31206A00F05AFF23689A680C
:10130C0002F46022B2F5602F25D09A6842F4801264
:10131C009A6028E0164B5B6813F4702FA3D001235E
:10132C001D4620E0A3F580635B6813F4702FB3D0E7
:10133C00A36A43F48013A3620D4B5B6813F4806FB4
:10134C00B8D0A36A23F4405343F48053A362B1E7AB
:10135C000023E362B6E79A6842F4A0029A6002E0C6
:10136C00002384F824302846F8BD02231D46FAE7F2
:10137C000024014000280140E30E0008370F00084C
:10138C004710000838B503689A6812F0010F01D1B4
:10139C00002038BD04469A6822F001029A6000F0E1
:1013AC0079F9054623689B6813F0010F13D000F000
:1013BC0071F9431B022BF5D923689B6813F0010FBD
:1013CC00F0D0A36A43F01003A362E36A43F0010375
:1013DC00E3620120DDE70020DBE70000002800F0DD
:1013EC008B8010B50446836A002B5CD02046FFF737
:1013FC00C9FFA36A13F0100378D1002876D1A26A32
:10140C0022F4885222F0020242F00202A2626268C6
:10141C00E1690A43217B42EA4102D4F808C0BCF5D9
:10142C00807F03D0BCF1010F43D09C4694F814E0AC
:10143C00BEF1010F40D0D4F800E0DEF8041021F426
:10144C00694141EA0C01CEF80410D4F800C0DCF874
:10145C0008E02A490EEA01011143CCF80810A168F2
:10146C00B1F5807F01D0012902D12369013B1B0515
:10147C00D4F800C0DCF82C1021F470010B43CCF82C
:10148C002C30236899681E4B0B409A4225D0A36AD6
:10149C0023F0120343F01003A362E36A43F0010349
:1014AC00E362012027E0C36280F82430FFF7E4FAFE
:1014BC009CE74FF4807CB9E731B9A16901394CEA5A
:1014CC00413141F4006CB6E7A16A41F02001A16200
:1014DC00E16A41F00101E162ADE70023E362A36A36
:1014EC0023F0030343F00103A36204E0A36A43F077
:1014FC001003A362012010BD01207047FDF7E1FF2E
:10150C00FE0E1FFF70B582B00023019390F82430BB
:10151C00012B74D00446012380F82430FFF732FFEE
:10152C002046FFF751FE064628B1002384F82430EC
:10153C00304602B070BDA36A23F4885323F0020333
:10154C0043F00203A3622F4B1D68022000F072FCD3
:10155C00B5FBF0F56D00019502E0019B013B019399
:10156C00019B002BF9D12268936843F00803936028
:10157C0000F090F8054623689A6812F0080F15D011
:10158C0000F088F8401B0A28F5D923689B6813F0F3
:10159C00080FF0D0A36A23F0120343F01003A362E8
:1015AC00002384F8243001231E46C1E79A6842F0D8
:1015BC0004029A6000F06EF8054623689B6813F0ED
:1015CC00040F15D000F066F8401B0A28F5D92368E3
:1015DC009B6813F0040FF0D0A36A23F0120343F0BE
:1015EC001003A362002384F8243001231E469FE7D6
:1015FC00A36A23F0030343F00103A36295E70223DC
:10160C001E4695E7080000207047000010B5044600
:10161C000E4B18680E4B1A784FF47A73B3FBF2F337
:10162C00B0FBF3F000F084FF68B90F2C01D9012056
:10163C000AE0024621464FF0FF3000F05BFF054BFD
:10164C001C60002000E0012010BD00BF080000203D
:10165C00000000200400002008B5074A136843F07E
:10166C0010031360032000F033FF0F20FFF7CEFFB1
:10167C00FFF792FB002008BD00200240034A1168CE
:10168C00034B1B780B441360704700BF9401002080
:10169C0000000020014B1868704700BF9401002027
:1016AC0038B50446FFF7F6FF0546B4F1FF3F02D00C
:1016BC00044B1B781C44FFF7EDFF401BA042FAD3F0
:1016CC0038BD00BF0000002082B0084B1B68084AE0
:1016DC00A2FB03235B0A00FB03F3019300BF019BF6
:1016EC005A1E0192002BF9D102B07047080000205D
:1016FC00D34D6210002800F0F38170B582B004461F
:10170C00036813F0010F2CD09A4B5B6803F00C03A9
:10171C00042B1DD0974B5B6803F00C03082B12D0E5
:10172C006368B3F5803F41D0002B55D103F1804362
:10173C0003F504331A6822F480321A601A6822F412
:10174C0080221A6037E08B4B5B6813F4803FE7D044
:10175C00884B1B6813F4003F03D06368002B00F028
:10176C00C181236813F0020F75D0824B5B6813F0B4
:10177C000C0F5FD07F4B5B6803F00C03082B54D02D
:10178C002369002B00F08A807B4B01221A60FFF743
:10179C0081FF0546774B1B6813F0020F75D1FFF7DD
:1017AC0079FF401B0228F5D90320A0E1714A136888
:1017BC0043F480331360636843B3FFF76BFF054654
:1017CC006C4B1B6813F4003FCBD1FFF763FF401B3E
:1017DC006428F5D903208AE1B3F5A02F09D0654B15
:1017EC001A6822F480321A601A6822F480221A6075
:1017FC00E1E703F18043A3F53C331A6842F48022FD
:10180C001A601A6842F480321A60D4E7FFF742FF7C
:10181C000546584B1B6813F4003FA2D0FFF73AFF64
:10182C00401B6428F5D9032061E1524B5B6813F42B
:10183C00803FA5D14F4B1B6813F0020F03D02369D7
:10184C00012B40F051814B4A136823F0F803616976
:10185C0043EAC1031360236813F0080F33D0A36964
:10186C00002B5DD0444B0122C3F88024FFF712FFFC
:10187C000546404B5B6A13F0020F21D1FFF70AFFBC
:10188C00401B0228F5D9032031E13A4A136823F0B2
:10189C00F803616943EAC1031360DCE7364B0022AD
:1018AC001A60FFF7F7FE0546324B1B6813F0020F68
:1018BC00D1D0FFF7EFFE401B0228F5D9032016E12B
:1018CC000120FFF701FF236813F0040F00F098804C
:1018DC00284BDB6913F0805F35D1264BDA6942F077
:1018EC008052DA61DB6903F080530193019B012381
:1018FC001E46224B1B6813F4807F27D0E368012B14
:10190C003ED0002B54D103F1804303F504331A6A03
:10191C0022F001021A621A6A22F004021A6234E0FE
:10192C00154B0022C3F88024FFF7B4FE0546114B7B
:10193C005B6A13F0020FC6D0FFF7ACFE401B022807
:10194C00F5D90320D3E000231E46D2E70B4A1368D7
:10195C0043F480731360FFF79DFE0546074B1B682D
:10196C0013F4807FCAD1FFF795FE401B6428F5D98C
:10197C000320BCE000100240000042420070004016
:10198C005F4A136A43F001031362E36833B3FFF752
:10199C0081FE05465A4B1B6A13F0020F2FD1FFF73D
:1019AC0079FE401B41F288339842F3D903209EE024
:1019BC00052B09D0524B1A6A22F001021A621A6ADC
:1019CC0022F004021A62E0E74D4B1A6A42F004025C
:1019DC001A621A6A42F001021A62D6E7FFF75AFE3F
:1019EC000546474B1B6A13F0020F08D0FFF752FE57
:1019FC00401B41F288339842F3D9032077E0E6B9D3
:101A0C00E369002B72D03E4A526802F00C02082A9D
:101A1C0056D0022B17D03B4B00221A66FFF73AFE2A
:101A2C000446374B1B6813F0007F47D0FFF732FE9C
:101A3C00001B0228F5D9032059E0314AD36923F061
:101A4C008053D361DCE72F4B00221A66FFF722FE8E
:101A5C0005462B4B1B6813F0007F06D0FFF71AFED0
:101A6C00401B0228F5D9032041E0236AB3F5803FDF
:101A7C001AD023494B6823F47413226A606A024318
:101A8C0013434B601F4B01221A66FFF703FE0446FB
:101A9C001B4B1B6813F0007F0ED1FFF7FBFD001BE7
:101AAC000228F5D9032022E0154A536823F40033A9
:101ABC00A1680B435360DCE7002018E0002016E01F
:101ACC00012B16D00E4B5B6803F48031226A9142D5
:101ADC0011D103F47013626A93420ED1002006E018
:101AEC0001207047012002E0012000E0184602B0FE
:101AFC0070BD0120FBE70120F9E70120F7E700BFEB
:101B0C0000100240000042420F4B5B6803F00C02D5
:101B1C00082A01D00D487047C3F383420C49885CF6
:101B2C0013F4803F0BD0084B5B68C3F34043094A66
:101B3C00D35C064A02FB00F0B0FBF3F07047064B97
:101B4C0003FB00F0704700BF0010024000127A0047
:101B5C00B03E0008AC3E000800093D00002800F033
:101B6C00A08070B50D460446524B1B6803F007036A
:101B7C008B420BD24F4A136823F007030B431360BD
:101B8C00136803F007038B4240F08D80236813F039
:101B9C00020F17D013F0040F04D0474A536843F4D4
:101BAC00E0635360236813F0080F04D0424A536873
:101BBC0043F460535360404A536823F0F003A16828
:101BCC000B435360236813F0010F31D06368012B72
:101BDC0020D0022B25D0384A126812F0020F64D0A4
:101BEC0035494A6822F0030213434B60FFF752FD5C
:101BFC000646314B5B6803F00C036268B3EB820F53
:101C0C0016D0FFF747FD801B41F288339842F0D97C
:101C1C00032045E0284A126812F4003FE0D101206D
:101C2C003EE0254A126812F0007FD9D1012037E03E
:101C3C00204B1B6803F00703AB420AD91D4A1368FB
:101C4C0023F007032B431360136803F00703AB4225
:101C5C002DD1236813F0040F06D0174A536823F4D0
:101C6C00E063E1680B435360236813F0080F07D05F
:101C7C00114A536823F46053216943EAC10353604A
:101C8C00FFF742FF0C4B5B68C3F303130B4AD35CA7
:101C9C00D8400B4B18600B4B1868FFF7B7FC0020B3
:101CAC0070BD012070470120FAE70120F8E7012000
:101CBC00F6E700BF0020024000100240DC3E0008A6
:101CCC000800002004000020014B1868704700BF7A
:101CDC000800002008B5FFF7F7FF044B5B68C3F35F
:101CEC000223034AD35CD84008BD00BF0010024059
:101CFC00D43E000808B5FFF7E7FF044B5B68C3F35D
:101D0C00C223034AD35CD84008BD00BF0010024078
:101D1C00D43E000870B582B00446036813F0010F7E
:101D2C0039D0414BDB6913F0805F4DD13E4BDA6902
:101D3C0042F08052DA61DB6903F080530193019B1E
:101D4C0001231E46394B1B6813F4807F3FD0364B62
:101D5C001B6A13F4407315D0626802F440729A4205
:101D6C0010D0314A136A23F4407031494FF0010C02
:101D7C00C1F840C44FF0000CC1F840C4106213F01D
:101D8C00010F38D1284A136A23F4407361680B435E
:101D9C001362002E40D1236813F0020F06D0224AA2
:101DAC00536823F44043A1680B435360236813F03A
:101DBC00100F36D01C4A536823F48003E1680B43A0
:101DCC005360002002B070BD00231E46BAE7174ACC
:101DDC00136843F480731360FFF75CFC0546134BE8
:101DEC001B6813F4807FB2D1FFF754FC401B6428AE
:101DFC00F5D90320E6E7FFF74DFC05460A4B1B6AB5
:101E0C0013F0020FBED1FFF745FC401B41F28833A3
:101E1C009842F3D90320D5E7D36923F08053D361DB
:101E2C00B9E70020CEE700BF001002400070004070
:101E3C000000424208B5022851D0102803D00128D6
:101E4C0028D0002055E02B4B5A68186810F0807091
:101E5C004FD0C2F383432849C85C12F4803F15D09D
:101E6C00244B5B68C3F34043244AD25C244BB3FB42
:101E7C00F2F303FB00F01F4B5B6813F4800F38D1B7
:101E8C004000204BA3FB0030400832E01E4B03FB0C
:101E9C0000F0F0E7174B1A6A02F44073B3F5807F39
:101EAC0007D0B3F5007F0AD0B3F5407F0FD00020E8
:101EBC001FE012F0020FF4D04FF4004019E00D4A6D
:101ECC00526A12F0020FEFD049F6404011E0094B74
:101EDC00186810F400300CD04FF2244009E0FFF7E2
:101EEC0009FF044B5B68C3F3813301335B00B0FB28
:101EFC00F3F008BD00100240C43E0008C03E0008CC
:101F0C0000127A00ABAAAAAA00093D0070B582B0F3
:101F1C004FF0000EF446A4E0012B28D0022B03D185
:101F2C00CB6803F1080E24E01BBB8B68002B65D03B
:101F3C00012B5CD042614FF0080E1AE0664DAB42AB
:101F4C00F3D00CD8A5F58015AB42EED005F5702575
:101F5C00AB42EAD0A5F58015AB42E6D009E05F4D67
:101F6C00AB42E2D005F58035AB42DED001E0D1F8D2
:101F7C000CE0FF2C45D806464FEA8C0233680F253F
:101F8C00954023EA05030EFA02F2134333604B68C3
:101F9C0013F0805F63D0524B9A6942F001029A6150
:101FAC009B6903F001030193019B4FEA9C02951C72
:101FBC004C4B53F825600CF00305AD000F23AB40E0
:101FCC0026EA0306484B984222D003F580639842D8
:101FDC0063D003F58063984261D003F58063984227
:101FEC0014D0042315E0CB6803F10C0EC1E7026199
:101FFC004FF0080EBDE74FF0000EBAE74FF0040E9D
:10200C00B7E7061DACF108029200B7E7032300E026
:10201C000023AB4033430232324D45F822304B683B
:10202C0013F4801F3DD0314A9368234393604B686F
:10203C0013F4001F3BD02D4AD3682343D3604B6865
:10204C0013F4003F39D0294A5368234353604B683B
:10205C0013F4803F37D0254A1368234313600CF1E7
:10206C00010C0B6833FA0CF233D0012202FA0CF299
:10207C0003EA020432EA0303F1D14B68032BBAD012
:10208C007FF64AAF122BAED03FF658AF112B7FF430
:10209C0070AFCB6803F1040E6BE70123B9E70223A1
:1020AC00B7E7124A936823EA04039360BFE70F4A29
:1020BC00D36823EA0403D360C1E70C4A536823EACC
:1020CC0004035360C3E7094A136823EA040313604B
:1020DC00C5E702B070BD00BF000022100000311037
:1020EC0000100240000001400008014000040140C3
:1020FC000AB101617047090401617047C36801EAC4
:10210C00030221EA030141EA02410161704700B573
:10211C008E46016C4FF0010C0CFA01F1D0F83CC06A
:10212C00CCF8041001684B604368102B05D0036891
:10213C00C3F808E00368DA6000BD03689A600368BE
:10214C00C3F80CE0F8E7000050B310B40246016885
:10215C00144B0B441448A0FB03031B099B00136492
:10216C00124BD363022382F8213008686FF30D10F1
:10217C00536894682343D4682343146923435469F4
:10218C00234394692343D469234303430B60002006
:10219C009063012382F8213082F8200010BC704734
:1021AC0001207047F8FFFDBFCDCCCCCC0000024025
:1021BC0010B5044690F82000012834D0012084F892
:1021CC00200094F82100012804D0002384F820304A
:1021DC00022010BD022084F821000020A063D4F856
:1021EC0000C0DCF8000020F00100CCF80000204614
:1021FC00FFF78DFFE36A5BB12268136843F00E03AF
:10220C0013602268136843F0010313600020E0E7B9
:10221C002268136823F0040313602268136843F0E8
:10222C000A031360EDE70220D3E7034690F8212060
:10223C00022A06D004228263002280F8202001208A
:10224C00704701680A6822F00E020A6001680A6889
:10225C0022F001020A60026CC06B012101FA02F249
:10226C00426083F82110002083F8200070470000A2
:10227C0008B590F82130022B03D00423836301208E
:10228C0008BD0268136823F00E031360026813681C
:10229C0023F0010313600368194A934214D01432DB
:1022AC0093421FD0143293421ED0143293421ED04C
:1022BC00143293421ED01432934202D04FF08072EB
:1022CC0003E04FF4801200E001220E4B5A60012310
:1022DC0080F82130002380F82030436B6BB1984795
:1022EC000020CDE71022F0E74FF48072EDE74FF4B9
:1022FC008052EAE74FF48032E7E71846C0E700BFA8
:10230C00080002400000024008B5C36B1A68D0F800
:10231C0000C0DCF800E0016C04238B40134238D081
:10232C001EF0040F35D0DCF8003013F0200F05D16F
:10233C00DCF8003023F00403CCF800300368464A84
:10234C00934214D01432934218D01432934217D0C3
:10235C001432934217D01432934217D01432934252
:10236C0002D04FF0806203E04FF4800200E00422C0
:10237C003A4B5A60C36A03B1984708BD4022F7E74D
:10238C004FF48062F4E74FF48042F1E74FF480227F
:10239C00EEE702238B4013423FD01EF0020F3CD0DD
:1023AC00DCF8003013F0200F08D1DCF8003023F0FB
:1023BC000A03CCF80030012380F821300368264A48
:1023CC00934214D0143293421CD0143293421BD03B
:1023DC00143293421BD0143293421BD014329342CA
:1023EC0002D04FF0007203E04FF4001200E0022222
:1023FC001A4B5A60002380F82030836A002BBCD023
:10240C009847BAE72022F3E74FF40072F0E74FF455
:10241C000052EDE74FF40032EAE708238B401342F9
:10242C00ABD01EF0080FA8D0DCF8003023F00E0360
:10243C00CCF80030026CC16B012303FA02F24A6043
:10244C00836380F82130002380F82030036B002B4D
:10245C0093D0984791E700BF08000240000002406B
:10246C00002808DB0901C9B200F1604000F56140A9
:10247C0080F80013704700F00F000901C9B2014B3E
:10248C001954704714ED00E000B500F00700A0F1FE
:10249C00030CBCF1040F07D8C0F1070E043006285A
:1024AC0006D84FF0000C03E04FF0040E4FF0000C78
:1024BC004FF0FF3303FA0EF021EA000101FA0CF1A0
:1024CC0003FA0CF322EA030241EA020000BD000009
:1024DC00074AD36823F4E0631B041B0C000200F4CE
:1024EC00E060034343F0BF6343F40033D3607047B1
:1024FC0000ED00E010B50446054BD868C0F302208F
:10250C00FFF7C2FF01462046FFF7AAFF10BD00BF30
:10251C0000ED00E0002807DB00F01F02400901235A
:10252C009340024A42F82030704700BF00E100E0BF
:10253C000138B0F1807F0BD24FF0E0235861054A8F
:10254C00F02182F823100020986107221A6170474D
:10255C000120704700ED00E0002800F0A18038B5A4
:10256C00044690F82030D3B12268136843F001037D
:10257C001360FFF78FF8054623685A6812F0010FB5
:10258C0010D1FFF787F8401B0A28F5D9636A43F48A
:10259C0000336362052384F82030012038BDFEF738
:1025AC00E3FAE1E71A6822F002021A60FFF772F808
:1025BC00054623685A6812F0020F0DD0FFF76AF82F
:1025CC00401B0A28F5D9636A43F400336362052380
:1025DC0084F820300120E1E7227E012A3DD01A68E0
:1025EC0022F080021A60637E012B3BD022681368B4
:1025FC0023F040031360A37E012B39D022681368AB
:10260C0023F020031360E37E012B37D0226813687C
:10261C0043F010031360237F012B35D0226813681D
:10262C0023F008031360637F012B33D022681368F7
:10263C0023F004031360A368E26813432269134375
:10264C00626913436268013A21681343CB6100202D
:10265C006062012384F82030A0E71A6842F08002FF
:10266C001A60C0E72268136843F040031360C2E7A6
:10267C002268136843F020031360C4E722681368D0
:10268C0023F010031360C6E72268136843F00803B5
:10269C001360C8E72268136843F004031360CAE7A9
:1026AC0001207047026890F82030013BDBB2012B0F
:1026BC0005D9436A43F4802343620120704710B567
:1026CC00D2F8003243F00103C2F800324B6903F038
:1026DC001F03012000FA03F3D2F81C026FEA030C6B
:1026EC0020EA0300C2F81C02C869C8B9D2F80C026F
:1026FC000CEA0000C2F80C02B1F804E04869CC689E
:10270C004EEA044E483042F830E0B1F800E0486937
:10271C008C684EEA044E483002EBC000C0F804E06E
:10272C00C86901281AD0886990BBD2F804020CEA57
:10273C000000C2F80402086980BBD2F814020CEA4B
:10274C000000C2F81402096A01292DD0D2F8003217
:10275C0023F00103C2F80032002010BDD2F80C02A5
:10276C001843C2F80C02B1F804E048690C684EEA50
:10277C00044E483042F830E0B1F80CE048698C68FF
:10278C004EEA044E483002EBC000C0F804E0CAE741
:10279C00D2F804021843C2F80402CCE7D2F81402AF
:1027AC001843C2F81402CEE7D2F81C120B43C2F83D
:1027BC001C32CBE770B5044690F82030012B06D0C4
:1027CC00436A43F4002343620126304670BDDEB2F7
:1027DC00022380F820300268136823F00103136091
:1027EC00FEF758FF054623685B6813F0010F0CD009
:1027FC00FEF750FF431B0A2BF5D9636A43F40033F1
:10280C006362052384F82030DFE700266662DCE78C
:10281C0010B590F820E00468D4F808C00EF1FF3E23
:10282C005FFA8EFEBEF1010F6FD81CF0806F05D1E0
:10283C001CF0006F02D11CF0805F60D0CCF3016CF7
:10284C004FF0010E0EFA0CFEC3F800E08B68002B63
:10285C0040D1CB680C6843EA445E0CF118031B01B1
:10286C00046844F803E003680CF1180E03EB0E1334
:10287C000C695C600B7D012B39D0D17993791B04E9
:10288C0043EA0163517943EA012392F804E00168B9
:10289C0043EA0E0301EB0C11C1F88C31D17893781B
:1028AC001B0443EA0163517843EA0123117802685F
:1028BC000B4302EB0C12C2F8883102680CF1180CB5
:1028CC004FEA0C1C52F80C3043F0010342F80C3068
:1028DC00002010BD4C6843EAC403CC6823430CF1C0
:1028EC00180E4FEA0E1E046844F80E30BBE703685E
:1028FC0003EB0E13596841F480715960BDE7436ACC
:10290C0043F4001343620120E3E7436A43F480235A
:10291C0043620120DDE790F820C00CF1FF3C5FFA28
:10292C008CFCBCF1010F00F2C58061B9D0F800C07D
:10293C00DCF80CC01CF0030F12D1436A43F40013F3
:10294C00436201207047D0F800C0DCF810C01CF0C6
:10295C00030F05D1436A43F400134362012070470F
:10296C0000B501F11B0C4FEA0C1CD0F800E05EF82E
:10297C000CC00CF0040CC2F808C0BCF1000F7BD1E9
:10298C0001F11B0C4FEA0C1CD0F800E05EF80CC0F7
:10299C004FEA5C5CC2F800C001F11B0C4FEA0C1C46
:1029AC00D0F800E05EF80CE00EF0020EC2F80CE07D
:1029BC00D0F800E0F444DCF804C01CF0080F68D038
:1029CC004FF0080CC2F810C001F11B0ED0F800C07B
:1029DC000CEB0E1CDCF804C0CCF3072CC2F818C0AE
:1029EC00D0F800C00CEB0E1CDCF804C04FEA1C4CF9
:1029FC00C2F814C0026802EB0112D2F8B8211A70A6
:102A0C00026802EB0112D2F8B821C2F307225A7005
:102A1C00026802EB0112D2F8B821C2F307429A7095
:102A2C00026802EB0112D2F8B821120EDA700268B9
:102A3C0002EB0112D2F8BC211A71026802EB0112EE
:102A4C00D2F8BC21C2F307225A71026802EB0112C0
:102A5C00D2F8BC21C2F307429A71026802EB011250
:102A6C00D2F8BC21120EDA71F1B90268D36843F0C6
:102A7C002003D360002000BD01F11B0C4FEA0C1C9D
:102A8C00D0F800E05EF80CC04FEADC0CC2F804C0D1
:102A9C0082E701F11B0C0EEB0C1EDEF804C00CF0EF
:102AAC000F0CC2F810C08FE70268136943F02003C3
:102ABC001361DFE7436A43F48023436201207047CC
:102ACC0090F82030013BDBB2012B05D9436A43F46B
:102ADC008023436201207047026853690B435361A2
:102AEC0000207047704770477047704770477047B9
:102AFC00704770472DE9F84F054603685C69D3F8B9
:102B0C0004809F68DA6891461A6992469A699346DE
:102B1C0014F001063BD017F0010616D001229A6082
:102B2C0017F0020F08D117F0040F0CD117F008069C
:102B3C0006D04FF4805608E0FDF742FE002604E074
:102B4C00FFF7D0FF01E04FF4006617F4807F0DD043
:102B5C002B684FF480729A6017F4007F40F09280DB
:102B6C0017F4806F00F0928046F4005617F4803F03
:102B7C000DD02B684FF480329A6017F4003F40F070
:102B8C008F8017F4802F00F08F8046F4004614F0ED
:102B9C00080F07D019F0100F04D046F400762B68FC
:102BAC001022DA6014F0040F03D019F0080F40F073
:102BBC00858014F0020F05D02B68DB6813F0030F2F
:102BCC0040F0838014F0400F07D01AF0100F04D09F
:102BDC0046F480662B6810221A6114F0200F02D084
:102BEC001AF0080F75D114F0100F04D02B681B6964
:102BFC0013F0030F74D114F4003F02D018F0100F2F
:102C0C0072D114F4803F02D018F0080F73D114F471
:102C1C00004F33D018F0040F2DD014F4807F04D063
:102C2C001BF0010F01D046F0010614F4007F04D014
:102C3C001BF0020F01D046F0020614F4806F04D092
:102C4C001BF0040F01D046F0040614F4006F12D0F0
:102C5C001BF070030FD0402B61D053D8202B58D0D1
:102C6C00302B59D0102B01D146F008062A689369F5
:102C7C0023F0700393612B6804225A60002E54D108
:102C8C00BDE8F88F2846FDF7ADFD6FE717F4006F30
:102C9C0002D046F4804669E72846FFF724FF65E733
:102CAC002846FDF7B1FD72E717F4002F02D046F469
:102CBC0080366CE72846FFF717FF68E72B68082279
:102CCC00DA602846FFF711FF73E72846FDF748FD49
:102CDC0078E72B6808221A612846FFF708FF82E77D
:102CEC002846FFF703FF86E72B6810225A60284618
:102CFC00FFF7FEFE85E72B6808225A602846FFF78F
:102D0C00F8FE84E7502B0DD0602BAFD146F48076C3
:102D1C00ACE746F01006A9E746F02006A6E746F019
:102D2C004006A3E746F08006A0E76B6A33436B626C
:102D3C002846FDF77BFDA3E7406A7047026802F165
:102D4C000C0353E8003F23F0C0030C3242E800317F
:102D5C000029F3D1202380F841307047026802F13A
:102D6C000C0353E8003F23F490730C3242E800311B
:102D7C000029F3D1026802F1140353E8003F23F059
:102D8C000103143242E800310029F3D1036B012B0B
:102D9C0005D0202380F8423000230363704702687B
:102DAC0002F10C0353E8003F23F010030C3242E80D
:102DBC0000310029F3D1ECE790F84130212B01D000
:102DCC00022070478368B3F5805F17D0036A5A1CE2
:102DDC0002621A7803685A60C38C9BB2013B9BB2A7
:102DEC00C3844BB90268D36823F08003D3600268B4
:102DFC00D36843F04003D360002070470369002B75
:102E0C00E4D1036A1B880268C3F308035360036AA6
:102E1C0002330362E0E7000010B504460268136950
:102E2C0023F44053C1680B43136183680269134355
:102E3C0042691A430168CB6823F4B05323F00C03A6
:102E4C001343CB600268536923F4407381690B43CD
:102E5C0053610268134B9A4220D0FEF73BFF0246A7
:102E6C0002EB820202EB820263689B00B2FBF3F27C
:102E7C000D48A0FB02314909642303FB11231B01FC
:102E8C003233A0FB03035B0903F0F00202EB0112E7
:102E9C0003F00F03216813448B6010BDFEF72AFF6B
:102EAC000246DDE7003801401F85EB5160B310B5D9
:102EBC00044690F8413013B3242384F8413022683F
:102ECC00D36823F40053D3602046FFF7A5FF226894
:102EDC00136923F4904313612268536923F02A0386
:102EEC0053612268D36843F40053D36000206064BC
:102EFC00202384F8413084F84230606310BD80F8A0
:102F0C004030FDF79BFED7E70120704790F8413029
:102F1C00202B37D110B50446002935D00AB9012031
:102F2C0010BD01628284C28400234364212084F892
:102F3C0041001648D4F838C0CCF828001448D4F80E
:102F4C0038C0CCF82C001348D4F838C0CCF830007A
:102F5C00A06B436320681346021DA06BFFF728F992
:102F6C0023686FF040021A60226802F1140353E8E0
:102F7C00003F43F08003143242E800310029F3D1C2
:102F8C000846CDE7022070470120C9E7A72F0008AB
:102F9C000F3000081D300008704708B50346406A22
:102FAC001B681B6813F0200F1AD10023C38402681E
:102FBC0002F1140353E8003F23F08003143242E87B
:102FCC0000310029F3D1026802F10C0353E8003FF1
:102FDC0043F040030C3242E800310029F3D108BD24
:102FEC00FFF7DAFFFBE708B50168CA6822F0400278
:102FFC00CA60202280F84120FFF7CEFF002008BDD8
:10300C00704708B5406AFFF7FBFF08BD7047704773
:10301C0010B5446A23685B6994F84120212A0FD0CB
:10302C0023685B6903F0400394F84220222A11D0F4
:10303C00636C43F0100363642046FFF7E8FF10BD98
:10304C0003F08003002BEBD00023E3842046FFF732
:10305C0075FEE5E7002BEBD00023E3852046FFF758
:10306C007DFEE5E708B5406A0023C385C384FFF7FE
:10307C00CEFF08BD704790F84230222B67D1836891
:10308C00B3F5805F4DD0826AB3F5805F04D0002B1E
:10309C0054D10369002B51D103685B681370836AA8
:1030AC0001338362C38D9BB2013B9BB2C385002B62
:1030BC004FD100B583B00268D36823F02003D360EE
:1030CC000268D36823F48073D3600268536923F0D9
:1030DC0001035361202380F8423000234363036BC8
:1030EC00012B31D100230363026802F10C0353E876
:1030FC00003F23F010030C3242E800310029F3D1D9
:10310C0003681A6812F0100F05D001911A68019229
:10311C005B680193019B818DFFF7ACFF002003B02E
:10312C0000BD0269002AAED1826A03685B68C3F3F2
:10313C0008031380836A02338362B3E703685B6816
:10314C0003F07F031370AAE7FFF760FFE6E70220A6
:10315C00704700207047000010B582B0044602682A
:10316C001368D068516913F00F0F09D113F0200FB9
:10317C000CD010F0200F09D02046FFF77CFF16E092
:10318C0011F0010115D110F4907F12D1216B01299E
:10319C0079D013F0800F03D010F0800F40F0118124
:1031AC0013F0400F03D010F0400F40F00E8102B02E
:1031BC0010BD13F0010F06D010F4807F03D0626CA9
:1031CC0042F00102626413F0040F04D019B1626C76
:1031DC0042F00202626413F0020F04D019B1626C67
:1031EC0042F00402626413F0080F07D010F0200FB5
:1031FC0000D119B1626C42F008026264626C002A60
:10320C00D5D013F0200F02D010F0200F29D1236855
:10321C005B6903F04003626C12F0080F00D163B3DA
:10322C002046FFF79BFD23685B6913F0400F20D00D
:10323C00226802F1140353E8003F23F040031432D8
:10324C0042E800310029F3D1E36B73B1614A5A6350
:10325C00E06BFFF70DF80028A9D0E06B436B9847A3
:10326C00A5E72046FFF707FFD1E72046FFF7CFFE83
:10327C009DE72046FFF7CBFE99E72046FFF7C7FEF8
:10328C000023636493E713F0100F82D010F0100F3B
:10329C003FF47FAF002301931368019353680193AC
:1032AC00019B536913F0400F50D0E26B13685B68BD
:1032BC009BB2002B3FF47BAFA18D99427FF677AF89
:1032CC00E3859369202B36D0226802F10C0353E876
:1032DC00003F23F480730C3242E800310029F3D113
:1032EC00226802F1140353E8003F23F00103143267
:1032FC0042E800310029F3D1226802F1140353E8AB
:10330C00003F23F04003143242E800310029F3D18E
:10331C00202384F842302163226802F10C0353E825
:10332C00003F23F010030C3242E800310029F3D1A6
:10333C00E06BFEF77AFF02236363A18DE38D9BB2F2
:10334C00C91A89B22046FFF795FE30E7A18DE38DAF
:10335C009BB2C91A89B2E38D9BB2002B3FF427AF05
:10336C0000293FF424AF226802F10C0353E8003F1C
:10337C0023F490730C3242E800300028F3D1226819
:10338C0002F1140353E8003F23F00103143242E826
:10339C0000300028F3D1202384F8423020632268C7
:1033AC0002F10C0353E8003F23F010030C3242E807
:1033BC0000300028F3D1022363632046FFF75AFE46
:1033CC00F5E62046FFF7F8FCF1E62046FFF70BFE8A
:1033DC00EDE600BF713000087047000000B583B007
:1033EC000D4B5A6942F001025A615B6903F001030B
:1033FC000193019B002211460B20FFF77BF80B2059
:10340C00FFF788F8002211460E20FFF773F80E2004
:10341C00FFF780F803B000BD0010024010B596B065
:10342C0000241294139414941594109411940994E8
:10343C000A940B940C940D940E940F942022214614
:10344C0001A800F0F4FC2B482B4B0360472343608E
:10345C00846040F2E733C36004614461846100F02E
:10346C0059FA002834D14FF48053129312A92148F1
:10347C0000F05EFB00282ED11E4800F077FA0028E1
:10348C002CD100231093119310A91A4800F048FC7A
:10349C0038BB6023099300220A920B920C920D9276
:1034AC000E920F9209A9134800F0C6FAE0B9002356
:1034BC00019302930393049305934FF400520692E5
:1034CC00089301A90B4800F061FC80B916B010BD3F
:1034DC00FDF7BEF9C7E7FDF7BBF9CDE7FDF7B8F986
:1034EC00CFE7FDF7B5F9D4E7FDF7B2F9DFE7FDF764
:1034FC00AFF9EBE798010020002C014002680D4B5E
:10350C009A4200D0704700B583B003F564439A69C2
:10351C0042F400629A619B6903F400630193019B7E
:10352C00002211461920FEF7E5FF1920FEF7F2FFE5
:10353C0003B000BD002C014000B5026A036A23F001
:10354C0001030362D0F804E0836923F07303D1F81C
:10355C0000C04CEA030C22F002028B6813430F4AA2
:10356C0090420AD00D4A90420ED0C0F804E0C0F848
:10357C0018C04A684263036200BD23F00803CA689E
:10358C001A4322F00403EDE72EF4407E4A6942EA26
:10359C000E02D1F818E04EEA020EE6E7002C0140CC
:1035AC0000B5036A026A22F480720262D0F804C089
:1035BC00C26922F07302D1F800E04EEA020E23F445
:1035CC0000738A6843EA02230F4A90420AD00E4ADB
:1035DC0090420FD0C0F804C0C0F81CE04A68C26327
:1035EC00036200BD23F40063CA6843EA022323F498
:1035FC008063ECE72CF4405C4A694CEA021C8A6953
:10360C004CEA021CE6E700BF002C014000B5036A3F
:10361C00026A22F480520262D0F804C0C26922F419
:10362C00E642D1F800E042EA0E2223F40053D1F82E
:10363C0008E043EA0E33DFF824E0704506D0C0F80A
:10364C0004C0C2614A680264036200BD2CF4804C61
:10365C00D1F814E04CEA8E1CF1E700BF002C0140BD
:10366C00036AD0F820C02CF0010CC0F820C0D0F8B0
:10367C0018C02CF0F00C4CEA021223F00A030B4396
:10368C00826103627047036AD0F820C02CF0100CE2
:10369C00C0F820C0D0F818C02CF4704C4CEA0232A0
:1036AC0023F0A00343EA011382610362704783682D
:1036BC0023F070030B4343F0070383607047000053
:1036CC0090F83D30012B27D1022380F83D30026861
:1036DC00D36843F00103D3600368114A934210D0BE
:1036EC00B3F1804F0DD0A2F59432934209D002F57C
:1036FC008062934205D01A6842F001021A600020E1
:10370C0070479A6802F00702062A07D01A6842F03E
:10371C0001021A600020704701207047002070479A
:10372C00002C0140704770477047704770477047D6
:10373C0070B504460368DE681D6915F0020F10D0E1
:10374C0016F0020F0DD06FF002021A6101230377FD
:10375C0003689B6913F0030F5ED0FFF7E6FF0023AD
:10376C00237715F0040F12D016F0040F0FD0236836
:10377C006FF004021A610223237723689B6913F408
:10378C00407F4FD02046FFF7D0FF0023237715F062
:10379C00080F12D016F0080F0FD023686FF0080234
:1037AC001A61042323772368DB6913F0030F40D0DD
:1037BC002046FFF7BAFF0023237715F0100F12D025
:1037CC0016F0100F0FD023686FF010021A61082347
:1037DC0023772368DB6913F4407F31D02046FFF751
:1037EC00A4FF0023237715F0010F02D016F0010F70
:1037FC002DD115F0800F02D016F0800F2FD115F0BF
:10380C00400F02D016F0400F31D115F0200F02D02E
:10381C0016F0200F33D170BDFFF786FF2046FFF75F
:10382C0085FF9CE72046FFF77FFF2046FFF77EFFD2
:10383C00ABE72046FFF778FF2046FFF777FFBAE7A4
:10384C002046FFF771FF2046FFF770FFC9E723689A
:10385C006FF001021A612046FFF765FFC9E7236884
:10386C006FF080021A61204600F0BAFAC7E72368AD
:10387C006FF040021A612046FFF759FFC5E7236835
:10388C006FF020021A61204600F0A9FAC3E700008D
:10389C0003681F4A90420AD0B0F1804F07D0A2F5BE
:1038AC009432904203D002F58062904203D123F00F
:1038BC0070034A681343164A90420AD0B0F1804F05
:1038CC0007D0A2F59432904203D002F58062904268
:1038DC0003D123F44073CA68134323F080034A696D
:1038EC00134303608B68C3620B688362084B984276
:1038FC000AD001234361036913F0010F03D003695C
:10390C0023F00103036170470B690363F1E700BF08
:10391C00002C014040B310B5044690F83D30F3B193
:10392C00022384F83D30214651F8040BFFF7B0FF19
:10393C00012384F8463084F83E3084F83F3084F814
:10394C00403084F8413084F8423084F8433084F8B5
:10395C00443084F8453084F83D30002010BD80F8A8
:10396C003C30FFF7CBFDDBE70120704740B310B5CF
:10397C00044690F83D30F3B1022384F83D302146E3
:10398C0051F8040BFFF784FF012384F8463084F8C8
:10399C003E3084F83F3084F8403084F8413084F86D
:1039AC00423084F8433084F8443084F8453084F84D
:1039BC003D30002010BD80F83C30FFF7B3FEDBE754
:1039CC000120704700B5036A026A22F010020262FD
:1039DC00D0F804C0826922F4E642D1F800E042EA51
:1039EC000E2223F02003D1F808E043EA0E13DFF88F
:1039FC0044E070450AD0DFF83CE070450FD0C0F8C9
:103A0C0004C082614A688263036200BD23F08003B4
:103A1C00D1F80CE043EA0E1323F04003EBE72CF44F
:103A2C00406CD1F814E04CEA8E0CD1F818E04CEA5A
:103A3C008E0CE4E7002C014038B590F83C30012B9B
:103A4C0069D00446012380F83C30082A4ED01BD89C
:103A5C00002A33D0042A15D10D460068FFF7B2FFB7
:103A6C002268936943F4006393612268936923F499
:103A7C008063936122689369296943EA0123936106
:103A8C0000202FE018462DE00C2A15D10D460068B9
:103A9C00FFF7BCFD2268D36943F40063D36122684D
:103AAC00D36923F48063D3612268D369296943EA1B
:103ABC000123D361002015E0012013E00D460068BE
:103ACC00FFF73AFD2268936943F00803936122687B
:103ADC00936923F0040393612268936929690B436A
:103AEC0093610020002384F83C3038BD0D460068FB
:103AFC00FFF756FD2268D36943F00803D3612268AF
:103B0C00D36923F00403D3612268D36929690B4379
:103B1C00D3610020E6E70220E7E7D0F808C02CF4D8
:103B2C007F4C42EA03220A4342EA0C02826070474D
:103B3C0090F83C30012B78D010B50446012380F866
:103B4C003C30022380F83D300268936823F47F43B5
:103B5C0023F0770393600B68602B4CD023D8402B59
:103B6C0054D011D8202B03D00AD80BB1102B05D16F
:103B7C0019462068FFF79BFD002028E0012026E075
:103B8C00302BF5D0012022E0502B0AD1CA684968AD
:103B9C000068FFF765FD50212068FFF788FD0020C5
:103BAC0015E0012013E0B3F5805F3AD0B3F5005F68
:103BBC0014D0702B37D1CB684A6889680068FFF73E
:103BCC00ACFF2268936843F07703936000200123D5
:103BDC0084F83D30002384F83C3010BDCB684A6833
:103BEC0089680068FFF799FF2268936843F4804363
:103BFC0093600020EBE7CA6849680068FFF743FD53
:103C0C0060212068FFF753FD0020E0E7CA6849688F
:103C1C000068FFF725FD40212068FFF748FD0020D4
:103C2C00D5E70020D3E70120D1E70220704701F04F
:103C3C001F014FF0010C0CFA01FC036A23EA0C0380
:103C4C000362036A8A4013430362704710B504464B
:103C5C00084649BB94F83E30013B18BF0123002BAA
:103C6C0058D1002836D1022384F83E300122014677
:103C7C002068FFF7DCFF2368284A93423AD0236878
:103C8C00264A93423BD0B3F1804F38D0A2F5943200
:103C9C00934234D002F58062934230D01A6842F0DD
:103CAC0001021A60002036E0042907D008290BD045
:103CBC0094F84130013B18BF0123D0E794F83F3012
:103CCC00013B18BF0123CAE794F84030013B18BFF1
:103CDC000123C4E7042805D0082807D0022384F860
:103CEC004130C3E7022384F83F30BFE7022384F856
:103CFC004030BBE75A6C42F400425A64BFE79A6802
:103D0C0002F00702062A07D01A6842F001021A6074
:103D1C00002000E0012010BD0020FCE7002C014039
:103D2C0090F83C20012A2DD000B50346012280F8E2
:103D3C003C20022280F83D2002685068D2F808E04E
:103D4C0020F0700C086840EA0C0050601A680E48AD
:103D5C0082420AD0B2F1804F07D0A0F59430824253
:103D6C0003D000F58060824205D12EF0800E4968A8
:103D7C0041EA0E019160012283F83D20002083F876
:103D8C003C0000BD02207047002C0140024690F818
:103D9C003C30012B21D0012380F83C30CB6823F43C
:103DAC0040738868034323F480634868034323F417
:103DBC0000630868034323F480530869034323F426
:103DCC0000534869034323F48043C9690B431168CA
:103DDC004B64002082F83C0070470220704770470B
:103DEC0070470000FFF7F8FA0B480C490C4A002307
:103DFC0002E0D458C4500433C4188C42F9D3094A95
:103E0C00094C002301E013600432A242FBD300F002
:103E1C0017F8FCF75FFD7047000000200C00002035
:103E2C00F43E00080C000020E0010020FEE70346F1
:103E3C000244934200D1704703F8011BF9E70000DC
:103E4C0070B500260C4C0D4B1D1BB6EBA50F09D104
:103E5C00002600F019F80A4C0A4B1D1BB6EBA50FF7
:103E6C0005D170BD54F8043B98470136EDE754F882
:103E7C00043B98470136F1E7EC3E0008EC3E0008A5
:103E8C00EC3E0008F03E0008F8B500BFF8BC08BCDA
:103E9C009E467047F8B500BFF8BC08BC9E467047FC
:103EAC000102000002030405060708090A0B0C0DA9
:103EBC000E0F10100102000002030405060708098A
:103ECC000A0B0C0D0E0F1010000000000102030471
:103EDC0000000000000000000102030406070809AE
:043EEC003106000893
:043EF00009060008B7
:0C3EF400010000001000000000127A0025
:0400000508003DF1C1
:00000001FF
